{
  "address": "0xE86CC5F5F90300d4B93CF8e06239a45F3A327BB6",
  "abi": [
    {
      "inputs": [],
      "stateMutability": "nonpayable",
      "type": "constructor"
    },
    {
      "anonymous": false,
      "inputs": [
        {
          "indexed": false,
          "internalType": "address",
          "name": "sender",
          "type": "address"
        },
        {
          "indexed": false,
          "internalType": "uint256",
          "name": "amount",
          "type": "uint256"
        }
      ],
      "name": "LogFunding",
      "type": "event"
    },
    {
      "inputs": [],
      "name": "fund",
      "outputs": [],
      "stateMutability": "payable",
      "type": "function"
    },
    {
      "inputs": [],
      "name": "getOwner",
      "outputs": [
        {
          "internalType": "address",
          "name": "",
          "type": "address"
        }
      ],
      "stateMutability": "view",
      "type": "function"
    },
    {
      "inputs": [],
      "name": "withdraw",
      "outputs": [],
      "stateMutability": "nonpayable",
      "type": "function"
    }
  ],
  "transactionHash": "0x79d208d6e2781166e0feaefb409cb911e14794e27a64e81fd8516c8189477d46",
  "args": [],
  "numDeployments": 1,
  "solcInputHash": "7ef0b00ffbf4c976a207519ad0334cf8",
  "bytecode": "0x60a060405234801561001057600080fd5b503373ffffffffffffffffffffffffffffffffffffffff1660808173ffffffffffffffffffffffffffffffffffffffff168152505060805161071d6100606000396000610211015261071d6000f3fe6080604052600436106100345760003560e01c80633ccfd60b14610039578063893d20e814610050578063b60d42881461007b575b600080fd5b34801561004557600080fd5b5061004e610085565b005b34801561005c57600080fd5b5061006561020d565b60405161007291906103f5565b60405180910390f35b610083610235565b005b6000600160003373ffffffffffffffffffffffffffffffffffffffff1673ffffffffffffffffffffffffffffffffffffffff16815260200190815260200160002054905060003373ffffffffffffffffffffffffffffffffffffffff1682600067ffffffffffffffff8111156100fe576100fd610410565b5b6040519080825280601f01601f1916602001820160405280156101305781602001600182028036833780820191505090505b5060405161013e91906104b0565b60006040518083038185875af1925050503d806000811461017b576040519150601f19603f3d011682016040523d82523d6000602084013e610180565b606091505b505090506000600160003373ffffffffffffffffffffffffffffffffffffffff1673ffffffffffffffffffffffffffffffffffffffff1681526020019081526020016000208190555080610209576040517f08c379a000000000000000000000000000000000000000000000000000000000815260040161020090610524565b60405180910390fd5b5050565b60007f0000000000000000000000000000000000000000000000000000000000000000905090565b60003411610278576040517f08c379a000000000000000000000000000000000000000000000000000000000815260040161026f906105b6565b60405180910390fd5b64012a05f2003410156102c0576040517f08c379a00000000000000000000000000000000000000000000000000000000081526004016102b790610622565b60405180910390fd5b34600160003373ffffffffffffffffffffffffffffffffffffffff1673ffffffffffffffffffffffffffffffffffffffff168152602001908152602001600020600082825461030f919061067b565b925050819055506000339080600181540180825580915050600190039060005260206000200160009091909190916101000a81548173ffffffffffffffffffffffffffffffffffffffff021916908373ffffffffffffffffffffffffffffffffffffffff1602179055507f9f1a5e1a5d3381f9af1a62f8d61e4ae71444e28af488786cb10c8b2b457632ae33346040516103aa9291906106be565b60405180910390a1565b600073ffffffffffffffffffffffffffffffffffffffff82169050919050565b60006103df826103b4565b9050919050565b6103ef816103d4565b82525050565b600060208201905061040a60008301846103e6565b92915050565b7f4e487b7100000000000000000000000000000000000000000000000000000000600052604160045260246000fd5b600081519050919050565b600081905092915050565b60005b83811015610473578082015181840152602081019050610458565b60008484015250505050565b600061048a8261043f565b610494818561044a565b93506104a4818560208601610455565b80840191505092915050565b60006104bc828461047f565b915081905092915050565b600082825260208201905092915050565b7f5769746864726177616c206661696c6564000000000000000000000000000000600082015250565b600061050e6011836104c7565b9150610519826104d8565b602082019050919050565b6000602082019050818103600083015261053d81610501565b9050919050565b7f4465706f73697420616d6f756e74206d7573742062652067726561746572207460008201527f68616e2030000000000000000000000000000000000000000000000000000000602082015250565b60006105a06025836104c7565b91506105ab82610544565b604082019050919050565b600060208201905081810360008301526105cf81610593565b9050919050565b7f476173204c696d69742c206d616e207e00000000000000000000000000000000600082015250565b600061060c6010836104c7565b9150610617826105d6565b602082019050919050565b6000602082019050818103600083015261063b816105ff565b9050919050565b6000819050919050565b7f4e487b7100000000000000000000000000000000000000000000000000000000600052601160045260246000fd5b600061068682610642565b915061069183610642565b92508282019050808211156106a9576106a861064c565b5b92915050565b6106b881610642565b82525050565b60006040820190506106d360008301856103e6565b6106e060208301846106af565b939250505056fea2646970667358221220d8b4a4853b9b095123c28b827d67684be6c794efdcc0b4c342296e09cd0b8a8464736f6c63430008120033",
  "devdoc": {
    "author": "CJJJJJJJ",
    "details": "for sure",
    "kind": "dev",
    "methods": {},
    "title": "The Bank is built by me !!!",
    "version": 1
  },
  "userdoc": {
    "kind": "user",
    "methods": {},
    "notice": "just take it easy",
    "version": 1
  },
  "storageLayout": {
    "storage": [
      {
        "astId": 7,
        "contract": "contracts/Bank.sol:Bank",
        "label": "s_funders",
        "offset": 0,
        "slot": "0",
        "type": "t_array(t_address)dyn_storage"
      },
      {
        "astId": 11,
        "contract": "contracts/Bank.sol:Bank",
        "label": "s_addressToAmountDeposit",
        "offset": 0,
        "slot": "1",
        "type": "t_mapping(t_address,t_uint256)"
      }
    ],
    "types": {
      "t_address": {
        "encoding": "inplace",
        "label": "address",
        "numberOfBytes": "20"
      },
      "t_array(t_address)dyn_storage": {
        "base": "t_address",
        "encoding": "dynamic_array",
        "label": "address[]",
        "numberOfBytes": "32"
      },
      "t_mapping(t_address,t_uint256)": {
        "encoding": "mapping",
        "key": "t_address",
        "label": "mapping(address => uint256)",
        "numberOfBytes": "32",
        "value": "t_uint256"
      },
      "t_uint256": {
        "encoding": "inplace",
        "label": "uint256",
        "numberOfBytes": "32"
      }
    }
  }
}