{
  "address": "0x5FbDB2315678afecb367f032d93F642f64180aa3",
  "abi": [
    {
      "inputs": [],
      "stateMutability": "nonpayable",
      "type": "constructor"
    },
    {
      "anonymous": false,
      "inputs": [
        {
          "indexed": false,
          "internalType": "address",
          "name": "sender",
          "type": "address"
        },
        {
          "indexed": false,
          "internalType": "uint256",
          "name": "amount",
          "type": "uint256"
        }
      ],
      "name": "LogFunding",
      "type": "event"
    },
    {
      "inputs": [],
      "name": "MINIMUM_GAS",
      "outputs": [
        {
          "internalType": "uint256",
          "name": "",
          "type": "uint256"
        }
      ],
      "stateMutability": "view",
      "type": "function"
    },
    {
      "inputs": [],
      "name": "fund",
      "outputs": [],
      "stateMutability": "payable",
      "type": "function"
    },
    {
      "inputs": [],
      "name": "getOwner",
      "outputs": [
        {
          "internalType": "address",
          "name": "",
          "type": "address"
        }
      ],
      "stateMutability": "view",
      "type": "function"
    },
    {
      "inputs": [],
      "name": "withdraw",
      "outputs": [],
      "stateMutability": "nonpayable",
      "type": "function"
    }
  ],
  "transactionHash": "0xdb819c1404e990e327e3a5d9ebc77b0c88d39cb69e9a0472024917efec6337fc",
  "args": [],
  "numDeployments": 1,
  "solcInputHash": "4b787e8ad58d1f8fca6ede9c14c7df50",
  "bytecode": "0x60a060405234801561001057600080fd5b503373ffffffffffffffffffffffffffffffffffffffff1660808173ffffffffffffffffffffffffffffffffffffffff1681525050608051610777610060600039600061024701526107776000f3fe60806040526004361061003f5760003560e01c80633ccfd60b14610044578063893d20e81461005b578063b60d428814610086578063c0d14d0b14610090575b600080fd5b34801561005057600080fd5b506100596100bb565b005b34801561006757600080fd5b50610070610243565b60405161007d9190610434565b60405180910390f35b61008e61026b565b005b34801561009c57600080fd5b506100a56103ea565b6040516100b29190610468565b60405180910390f35b6000600160003373ffffffffffffffffffffffffffffffffffffffff1673ffffffffffffffffffffffffffffffffffffffff16815260200190815260200160002054905060003373ffffffffffffffffffffffffffffffffffffffff1682600067ffffffffffffffff81111561013457610133610483565b5b6040519080825280601f01601f1916602001820160405280156101665781602001600182028036833780820191505090505b506040516101749190610523565b60006040518083038185875af1925050503d80600081146101b1576040519150601f19603f3d011682016040523d82523d6000602084013e6101b6565b606091505b505090506000600160003373ffffffffffffffffffffffffffffffffffffffff1673ffffffffffffffffffffffffffffffffffffffff168152602001908152602001600020819055508061023f576040517f08c379a000000000000000000000000000000000000000000000000000000000815260040161023690610597565b60405180910390fd5b5050565b60007f0000000000000000000000000000000000000000000000000000000000000000905090565b600034116102ae576040517f08c379a00000000000000000000000000000000000000000000000000000000081526004016102a590610629565b60405180910390fd5b64012a05f2003410156102f6576040517f08c379a00000000000000000000000000000000000000000000000000000000081526004016102ed90610695565b60405180910390fd5b34600160003373ffffffffffffffffffffffffffffffffffffffff1673ffffffffffffffffffffffffffffffffffffffff168152602001908152602001600020600082825461034591906106e4565b925050819055506000339080600181540180825580915050600190039060005260206000200160009091909190916101000a81548173ffffffffffffffffffffffffffffffffffffffff021916908373ffffffffffffffffffffffffffffffffffffffff1602179055507f9f1a5e1a5d3381f9af1a62f8d61e4ae71444e28af488786cb10c8b2b457632ae33346040516103e0929190610718565b60405180910390a1565b64012a05f20081565b600073ffffffffffffffffffffffffffffffffffffffff82169050919050565b600061041e826103f3565b9050919050565b61042e81610413565b82525050565b60006020820190506104496000830184610425565b92915050565b6000819050919050565b6104628161044f565b82525050565b600060208201905061047d6000830184610459565b92915050565b7f4e487b7100000000000000000000000000000000000000000000000000000000600052604160045260246000fd5b600081519050919050565b600081905092915050565b60005b838110156104e65780820151818401526020810190506104cb565b60008484015250505050565b60006104fd826104b2565b61050781856104bd565b93506105178185602086016104c8565b80840191505092915050565b600061052f82846104f2565b915081905092915050565b600082825260208201905092915050565b7f5769746864726177616c206661696c6564000000000000000000000000000000600082015250565b600061058160118361053a565b915061058c8261054b565b602082019050919050565b600060208201905081810360008301526105b081610574565b9050919050565b7f4465706f73697420616d6f756e74206d7573742062652067726561746572207460008201527f68616e2030000000000000000000000000000000000000000000000000000000602082015250565b600061061360258361053a565b915061061e826105b7565b604082019050919050565b6000602082019050818103600083015261064281610606565b9050919050565b7f476173204c696d69742c206d616e207e00000000000000000000000000000000600082015250565b600061067f60108361053a565b915061068a82610649565b602082019050919050565b600060208201905081810360008301526106ae81610672565b9050919050565b7f4e487b7100000000000000000000000000000000000000000000000000000000600052601160045260246000fd5b60006106ef8261044f565b91506106fa8361044f565b9250828201905080821115610712576107116106b5565b5b92915050565b600060408201905061072d6000830185610425565b61073a6020830184610459565b939250505056fea26469706673582212203baf1baed678908b9510b62002032a7d02628285ac2d125899ac1bc644d06b3964736f6c63430008120033",
  "devdoc": {
    "author": "CJJJJJJJ",
    "details": "for sure",
    "kind": "dev",
    "methods": {},
    "title": "The Bank is built by me !!!",
    "version": 1
  },
  "userdoc": {
    "kind": "user",
    "methods": {},
    "notice": "just take it easy",
    "version": 1
  },
  "storageLayout": {
    "storage": [
      {
        "astId": 7,
        "contract": "contracts/Bank.sol:Bank",
        "label": "s_funders",
        "offset": 0,
        "slot": "0",
        "type": "t_array(t_address)dyn_storage"
      },
      {
        "astId": 11,
        "contract": "contracts/Bank.sol:Bank",
        "label": "s_addressToAmountDeposit",
        "offset": 0,
        "slot": "1",
        "type": "t_mapping(t_address,t_uint256)"
      }
    ],
    "types": {
      "t_address": {
        "encoding": "inplace",
        "label": "address",
        "numberOfBytes": "20"
      },
      "t_array(t_address)dyn_storage": {
        "base": "t_address",
        "encoding": "dynamic_array",
        "label": "address[]",
        "numberOfBytes": "32"
      },
      "t_mapping(t_address,t_uint256)": {
        "encoding": "mapping",
        "key": "t_address",
        "label": "mapping(address => uint256)",
        "numberOfBytes": "32",
        "value": "t_uint256"
      },
      "t_uint256": {
        "encoding": "inplace",
        "label": "uint256",
        "numberOfBytes": "32"
      }
    }
  }
}